{
  "contractName": "BrokenErc20",
  "abi": [
    {
      "constant": false,
      "inputs": [
        {
          "name": "to",
          "type": "address"
        },
        {
          "name": "tokens",
          "type": "uint256"
        }
      ],
      "name": "transfer",
      "outputs": [],
      "payable": false,
      "stateMutability": "nonpayable",
      "type": "function"
    }
  ],
  "bytecode": "0x608060405234801561001057600080fd5b5060b98061001f6000396000f3fe6080604052348015600f57600080fd5b506004361060285760003560e01c8063a9059cbb14602d575b600080fd5b607660048036036040811015604157600080fd5b81019080803573ffffffffffffffffffffffffffffffffffffffff169060200190929190803590602001909291905050506078565b005b6000808154809291906001019190505550505056fea165627a7a723058203dae270b2325a1fdbeb0f51938da87ee58b23ced97337130a9e0dbfbef39c3f30029",
  "source": "pragma solidity ^0.5.6;\n// pragma solidity ^0.4.20;\n\ncontract BrokenErc20 {\n    uint num;\n\n    function transfer(address to, uint tokens) public {\n        num++;\n    }\n}\n",
  "sourcePath": "/home/ohm/dev/eth/toys/broken-erc20-truffle/contracts/BrokenErc20.sol",
  "compiler": {
    "name": "solc",
    "version": "0.5.6+commit.b259423e.Emscripten.clang"
  },
  "schemaVersion": "3.0.9",
  "updatedAt": "2019-07-14T02:07:51.198Z",
  "devdoc": {
    "methods": {}
  },
  "userdoc": {
    "methods": {}
  }
}